:1000000092C10000B8C10000B6C10000B4C1000038
:10001000B2C10000B0C10000AEC10000ACC1000020
:10002000AAC10000A8C10000A6C10000A4C1000030
:10003000A2C10000A0C100009EC100009CC1000040
:100040000C94C91998C100000C94D0160C94021796
:1000500092C100000C94EA0B8EC100008CC100001C
:100060008AC1000088C100006E616E00696E660082
:10007000454C2D4D515454207265616479004265A0
:1000800067696E204D51545420496E7465726661E3
:10009000636500454C2D5245535420726561647967
:1000A000005245535420626567696E206661696C31
:1000B00065643A2000426567696E20454C2D5245C3
:1000C000535420496E7465726661636500454C2D1A
:1000D000436C69656E742073796E636564210045B5
:1000E0004C2D436C69656E742073796E6320666174
:1000F000696C65642100566F6C746167653A0056DF
:10010000335F63616C3A0056325F63616C3A00564C
:10011000315F63616C3A0043335F63616C3A004363
:10012000325F63616C3A0043315F63616C3A005047
:10013000335F63616C3A0050325F63616C3A005028
:10014000315F63616C3A005472616E736D69742043
:10015000496E74657276616C3A00436F6E666967CA
:10016000757261C3A7C3A36F20417475616C3A00B7
:10017000424F522072657365740045585420726571
:1001800073657400504F522072657365740055504A
:1001900020616E642052756E6E696E6700656D6FCA
:1001A0006E54582076004D515454207075626C691D
:1001B00073686564004D51545420646973636F6EB5
:1001C0006E6563746564004D51545420636F6E6EA8
:1001D00065637465642100000000080002010000EE
:1001E00003040700000000000000000102040810E2
:1001F000204080010204081020010204081020049D
:1002000004040404040404020202020202030303BD
:1002100003030300000000250028002B000000005D
:1002200000240027002A0000407A10F35A00A07230
:100230004E18090010A5D4E80000E8764817000021
:10024000E40B54020000CA9A3B000000E1F50500EF
:100250000080969800000040420F000000A0860138
:10026000000000102700000000E803000000006408
:1002700000000000000A0000000000010000000073
:10028000002C76D888DC674F0823DFC1DFAE59E148
:10029000B1B796E5E3E453C63AE651997696E8E6B7
:1002A000C28426EB898C9B62ED407C6FFCEFBC9C8A
:1002B0009F40F2BAA56FA5F490055A2AF75C936B9C
:1002C0006CF9676DC11BFCE0E40D47FEF520E6B557
:1002D00000D0ED902E0300943577050080841E0831
:1002E0000000204E0A000000C80C333333330F984F
:1002F0006E12831141EF8D2114893BE65516CFFE16
:10030000E6DB18D1844B381BF77C1D901DA4BBE4A1
:1003100024203284725E228100C9F124ECA1E53DE3
:1003200027009015271711241FBECFEFD8E0DEBF9E
:10033000CDBF12E0A0E0B1E0E2E1FFE302C0059032
:100340000D92AA39B107D9F725E0AAE9B2E001C0B8
:100350001D92A23AB207E1F713E0C6E2D3E004C06F
:100360002297FE010E946F1BC232D107C9F70E947B
:100370008C150C94871F44CEA3E1B0E0E2ECF1E0D1
:100380000C94221B7C011B016A01FC01178216825E
:10039000838181FF66C3BE016F5F7F4F4B01F70111
:1003A0009381F10193FD859193FF81911F01882332
:1003B00009F453C3853239F493FD859193FF8191FC
:1003C0001F01853239F4B70190E00E94D71E560113
:1003D0006501E5CF10E0512C20E02032A0F48B32F3
:1003E00069F030F4803259F0833269F420612CC016
:1003F0008D3239F0803339F4216026C022602460C8
:1004000023C0286021C027FD27C030ED380F3A30C7
:1004100078F426FF06C0FAE01F9F300D1124132F39
:1004200013C06AE0569E300D1124532E20620CC07A
:100430008E3221F426FD11C3206406C08C3611F4DF
:10044000206802C0883641F4F10193FD859193FF45
:1004500081911F018111C1CF9BEB980F933018F44C
:100460002061805E06C09BE9980F933008F0AAC116
:100470002F7E26FF16E02F73722E853621F4F22F81
:10048000F0647F2E08C0863621F4622F6068762ED5
:1004900002C01111115077FE07C01C3348F44424E8
:1004A0004394410E27E00BC0183030F4212F06C0D2
:1004B00027E04CE3442E03C027E017E0412C56010F
:1004C00074E0A70EB11CF601608171818281938175
:1004D000042DA4010E94E91D6C01098100FF02C0E6
:1004E00003FF06C071FC07C072FC08C0612C08C085
:1004F0003DE2632E05C02BE2622E02C090E2692E1F
:10050000802F8C7099F1662011F084E001C083E0A7
:10051000851510F0512C0BC0581A73FC08C0B70198
:1005200080E290E00E94D71E5A94C9F7F3CF66206C
:1005300029F0B701862D90E00E94D71E03FD03C06D
:100540000CE610E002C008E610E0F72DF0717F2EF7
:10055000F8018491882309F476C271108052B701A2
:1005600090E00E94D71E0F5F1F4FF2CF77FE0FC0A3
:100570004C0C04FF04C08A81813309F44A9414149A
:1005800074F5F8E0F41578F588E0482E2CC076FC78
:100590002AC0812F90E08C159D059CF06CEFC6164B
:1005A0006FEFD60674F0772D7068772E0AC0E2E000
:1005B000F0E0EC0FFD1FE10FF11D8081803319F495
:1005C00011501111F4CF77FE0EC044244394410E14
:1005D000812F90E0C816D9062CF41C1904C04424BD
:1005E000439401C010E077FE07C01C141D043CF4C6
:1005F00096012F5F3F4F05C025E030E002C021E0AB
:1006000030E0662011F02F5F3F4F112331F0412F72
:1006100050E04F5F5F4F240F351F452D50E02417EA
:10062000350714F4521A01C0512C872D897049F4F2
:10063000552039F0B70180E290E00E94D71E5A940D
:10064000F7CF662029F0B701862D90E00E94D71ED3
:1006500073FC09C0552039F0B70180E390E00E9497
:10066000D71E5A94F7CF77FE5FC09C2D8D2DD7FEF5
:1006700002C090E080E0692E782E40E050E0C60194
:10068000841991099D878C87960126193709280DB1
:10069000391D812F90E0EE27FF27E81BF90BFF871C
:1006A000EE87FFEF6F167F0669F4B7018EE290E0E8
:1006B0002B8B3A8B488B598B0E94D71E59894889BE
:1006C0003A892B89C614D70454F06C857D8566154C
:1006D00077052CF4F901E40FF51F818101C080E357
:1006E00071E0671A71084F5F5F4FEE85FF856E16E8
:1006F0007F066CF0B70190E02B8B3A8B488B598BBF
:100700000E94D71E2B893A8948895989CACF6C140F
:100710007D0439F49A81963318F4953311F404FF6B
:1007200081E3B70190E04BC08A81813309F00F7EED
:10073000B70190E00E94D71E111105C074FE18C0C9
:1007400085E490E017C0B7018EE290E00E94D71ECA
:1007500082E066246394680EF401E80FF11D808145
:10076000B70190E00E94D71E115041F3862DF1CFC2
:1007700085E690E0B7010E94D71ED7FC05C0C114E2
:10078000D10439F404FF05C0D194C194D1088DE29D
:1007900001C08BE2B70190E00E94D71E80E36AE0BF
:1007A000C616D1042CF08F5FFAE0CF1AD108F7CF2C
:1007B000B70190E00E94D71EB701C601C0960E9403
:1007C000D71E41C1833631F0833779F0833509F084
:1007D00058C021C0560172E0A70EB11CF6018081FD
:1007E000898301E010E0640114C05601F2E0AF0E0D
:1007F000B11CF601C080D18026FF03C0612F70E0DC
:1008000002C06FEF7FEFC6012B8B0E94CC1E8C01C4
:100810002B892F7715C05601F2E0AF0EB11CF601FF
:10082000C080D18026FF03C0612F70E002C06FEF4F
:100830007FEFC6012B8B0E94C11E8C012B89206883
:10084000722E23FD1AC0852D90E008171907A8F411
:10085000B70180E290E00E94D71E5A94F4CFF601CF
:1008600077FC859177FE81916F01B70190E00E943E
:10087000D71E51105A94015011090115110579F72D
:10088000E2C0843611F0893651F5560127FF09C0C0
:10089000F4E0AF0EB11CF601608171818281938119
:1008A0000AC0F2E0AF0EB11CF601608171818827A9
:1008B00077FD8095982F022F0F7697FF08C09095AF
:1008C0008095709561957F4F8F4F9F4F00682AE00C
:1008D00030E0A4010E94291FC82EC8183EC0022F74
:1008E000853721F40F7E2AE030E01DC0097F8F3666
:1008F00091F018F4883559F0B0C0803719F0883776
:1009000011F0ABC0006104FF09C0046007C024FF00
:1009100008C0066006C028E030E005C020E130E0F5
:1009200002C020E132E0560107FF09C0F4E0AF0E3B
:10093000B11CF601608171818281938108C0F2E06F
:10094000AF0EB11CF6016081718180E090E0A401DE
:100950000E94291FC82EC8180F7706FF0BC0202F32
:100960002E7FC11650F404FF0AC002FD08C0202FDC
:100970002E7E05C0DC2C202F03C0DC2C01C0D12E24
:1009800024FF0DC0FE01EC0DF11D8081803311F4B8
:10099000297E09C022FF06C0D394D39404C0822FBD
:1009A000867809F0D39423FD13C020FF06C01C2DC8
:1009B000D51418F4150D1D19D52CD51468F4B701EC
:1009C00080E290E02B8B0E94D71ED3942B89F5CF29
:1009D000D51410F45D1801C0512C24FF12C0B701CA
:1009E00080E390E02B8B0E94D71E2B8922FF17C03B
:1009F00021FF03C088E590E002C088E790E0B701DE
:100A00000CC0822F867859F021FD02C080E201C01F
:100A10008BE227FD8DE2B70190E00E94D71EC11640
:100A200038F4B70180E390E00E94D71E1150F7CF51
:100A3000CA94F401EC0DF11D8081B70190E00E9491
:100A4000D71EC110F5CF552009F4C2CCB70180E202
:100A500090E00E94D71E5A94F6CFF70186819781C5
:100A600002C08FEF9FEF6396E2E10C943E1BCF93A1
:100A7000DF93EC0188859985603CA1F06B3D21F501
:100A8000DC01ED91FC910190F081E02D6BED099579
:100A900088859985DC01ED91FC910190F081E02D34
:100AA0006DED18C0DC01ED91FC910190F081E02D1D
:100AB0006BED099588859985DC01ED91FC9101909C
:100AC000F081E02D6CED06C0DC01ED91FC91019010
:100AD000F081E02DDF91CF910994EF92FF920F9377
:100AE0001F93CF93DF937C018A01EB01060F171F41
:100AF000C017D10721F06991C701B9DFF9CFDF91A4
:100B0000CF911F910F91FF90EF900895CF93DF93B6
:100B1000EC01BC01655F7F4F42E050E0DEDF88857D
:100B20009985DC01ED91FC910190F081E02D60EC64
:100B3000DF91CF9109940F931F93CF93DF93EC0133
:100B40008B01FC0141935193CF01ECD519870887A4
:100B500081E08A87CE0144969E878D8780E890E069
:100B6000988B8F871A8A198A1B8ADF91CF911F91E0
:100B70000F910895FC012285222321F0808191812B
:100B80000C94E617089546275427452754279A01C1
:100B9000222784E0220F331F8A95E1F72427352787
:100BA000C901892F992782958F70822793279C01ED
:100BB000222755E0369527955A95E1F78227932706
:100BC0000895EF92FF920F931F93CF93DF937C01D1
:100BD0008A01C901EB01060F171FC017D10729F0C1
:100BE0006991AC01C701CFDFF8CFDF91CF911F91A1
:100BF0000F91FF90EF900895AF92BF92CF92DF9246
:100C0000EF92FF920F931F93CF93DF9300D000D00A
:100C100000D0CDB7DEB78C01DC011D96ED90FC90C5
:100C20001E971A968C911A97882309F47DC06CE060
:100C300071E08D919C910E94CB17F80161897289B6
:100C40004AE050E0808191810E94B91866E171E02C
:100C5000D8018D919C910E94CB17F801458556854E
:100C6000662757FD6095762F20E130E080819181E5
:100C70000E94A7186AE371E0D8018D919C910E94AF
:100C8000CB17F7016081718140E150E0D8018D916F
:100C90009C910E94B9186BE371E0F8018081918109
:100CA0000E94CB17D70114964D915D916D917C9167
:100CB000179720E130E0F801808191810E94A71808
:100CC0006BE371E0D8018D919C910E94CB17F701E5
:100CD0006281738140E150E0D8018D919C910E9426
:100CE000B91868E0C62ED12CF8012189328980819B
:100CF0009181C216D306B0F46BE371E00E94CB176A
:100D0000D8011D96ED91FC911E97EC0DFD1D40E163
:100D100050E060818D919C910E94B318BFEFCB1A77
:100D2000DB0AE2CF0E94D317D8015196CD90DC9018
:100D30005297B2E0CB1AD108F801A584B68420E01E
:100D400030E0A601B501C8013CDFF501EC0DFD1D49
:100D5000208131818217930729F069E171E0C80190
:100D600009DF58C0D7012D913C91F8018081918114
:100D700022303105A1F46AE271E00E94CB17D7015D
:100D800014964D915D916D917C9117972AE030E01A
:100D9000F801808191810E94D218C7013DC02330A3
:100DA0003105A1F563E371E00E94CB17D7011496DA
:100DB0004D915D916D917C9117972AE030E0F8019B
:100DC000808191810E94A7186BE371E0D8018D9119
:100DD0009C910E94CB17F701628173814AE050E039
:100DE000D8018D919C910E94BE18F7010481158154
:100DF000C801C9D4882371F0B701CE010196E3D2AE
:100E0000BE016F5F7F4FC80197D404C06DE371E0EE
:100E10000E94E61780E090E026960FB6F894DEBFB9
:100E20000FBECDBFDF91CF911F910F91FF90EF903B
:100E3000DF90CF90BF90AF9008951F93CF93DF9333
:100E4000EC0111E088859985DC01ED91FC9104802D
:100E5000F581E02D0995892B09F441C08885998594
:100E6000DC01ED91FC910680F781E02D09958B3D29
:100E7000910511F41B8BE6CF29893A89803C9105B5
:100E800071F42830310518F0CE01B6DE02C080E0E2
:100E900090E01A8A198A1B8A0097A1F222C04B8916
:100EA000442361F08C3D910531F08D3D910529F48D
:100EB0008BED90E002C080EC90E01B8A4F85588952
:100EC0002417350708F0BECFED85FE85A9014F5FD9
:100ED0005F4F5A8B498BE20FF31F8083B3CF80E0C3
:100EE00090E0DF91CF911F9108958F929F92AF92E2
:100EF000BF92CF92DF92EF92FF92CF93DF93EC01FC
:100F00006A017B010E940F1A4B015C010E940F1ABB
:100F1000681979098A099B096C157D058E059F055D
:100F200028F4CE018ADF009789F302C080E090E0C8
:100F3000DF91CF91FF90EF90DF90CF90BF90AF9077
:100F40009F908F900895EF92FF920F931F93CF93EE
:100F5000DF93CDB7DEB728970FB6F894DEBF0FBE8C
:100F6000CDBF7C017A8369832B833C834D835E8371
:100F700018870F83DC011C961C921E921B971896F3
:100F80008D919C911997DC01ED91FC910190F0817C
:100F9000E02D60EC099542E050E0BE016F5F7F4FAD
:100FA000C7019BDDF7012385348542E050E0BE0197
:100FB0006F5F7F4FC70105DED7011C969C938E9310
:100FC0001B9742E050E0BE01695F7F4FC70185DD9E
:100FD000F7012385348542E050E0BE01695F7F4F11
:100FE000C701EFDDD7011C969C938E931B9744E0BD
:100FF00050E0BE016D5F7F4FC7016FDDF7012385B4
:10100000348544E050E0BE016D5F7F4FC701D9DDFC
:10101000D7011C969C938E931B9728960FB6F89435
:10102000DEBF0FBECDBFDF91CF911F910F91FF901B
:10103000EF900895CF92DF92EF92FF920F931F935C
:10104000CF93DF9300D0CDB7DEB78C017B015A83FD
:10105000498342E050E0BE016F5F7F4F3EDDF80103
:101060002385348542E050E0BE016F5F7F4FC801A9
:10107000A8DDF80194878387C980DA80CE0CDF1C55
:10108000EC14FD0481F0F7016081C801F0DCF80187
:1010900043855485F70161917F01C80174DDF80132
:1010A00094878387EDCFE980FA80F194E194F10889
:1010B000F3E0EF22FF24E114F10481F060E0C801C5
:1010C000D6DCF8014385548560E0C8015CDDF80199
:1010D00094878387F1E0EF1AF108EDCF0F900F901E
:1010E000DF91CF911F910F91FF90EF90DF90CF9004
:1010F00008958F929F92AF92BF92CF92DF92EF921C
:10110000FF920F931F93CF93DF93EC014A015B0192
:101110006C0182E0C80ED11CEE24D7FCE094FE2CBA
:1011200000E010E0A701960161E070E0CE010BDF66
:10113000CE01ECDCB501A401CE01D7DE8C01009715
:1011400011F1F80144815581668177818881998107
:101150004C155D056E057F0531F463E471E00E9476
:10116000E61781E011C069E471E00E94CB17F80135
:1011700044815581668177812AE030E088819981B8
:101180000E94D218D7CF80E0DF91CF911F910F91AD
:10119000FF90EF90DF90CF90BF90AF909F908F9097
:1011A00008950F931F93CF93DF93EC018B01BAD275
:1011B000CE010696B7D2CE010C96B4D2CE0142969D
:1011C000B1D2198F088FDF91CF911F910F910895A0
:1011D000AF92BF92CF92DF92EF92FF920F931F9345
:1011E000CF93DF9300D000D0CDB7DEB75C016FE4C2
:1011F00071E08CEF94E00E94CB176501EE24D7FCE0
:10120000E094FE2C20E130E0B701A6018CEF94E0E1
:101210000E94D21804E010E020E030E0A9016AE06A
:1012200070E0F501808D918D8EDEC982DA82EB82CD
:10123000FC8244E050E0BE016F5F7F4FF501808D7E
:10124000918DF8DEC5010696AA2797FDA095BA2FC5
:1012500089839A83AB83BC8344E050E0BE016F5F17
:101260007F4FF501808D918DE5DEC5010C96AA2793
:1012700097FDA095BA2F89839A83AB83BC8344E002
:1012800050E0BE016F5F7F4FF501808D918DD2DE02
:10129000C5014296AA2797FDA095BA2F89839A8304
:1012A000AB83BC8344E050E0BE016F5F7F4FF5012C
:1012B000808D918DBFDEF501808D918D27DC0F90A3
:1012C0000F900F900F90DF91CF911F910F91FF9092
:1012D000EF90DF90CF90BF90AF9008958F929F9244
:1012E000AF92BF92CF92DF92EF920F931F93CF9363
:1012F000DF9300D000D0CDB7DEB76C015B014A01AF
:101300003A8329830B83EC8205E010E020E030E093
:10131000A9016BE070E0FC01808D918D14DEF50178
:1013200001900020E9F7AF01415051094A195B09CA
:10133000B501F601808D918D7DDE49815A81B40120
:10134000F601808D918D76DE42E050E0BE016F5F48
:101350007F4FF601808D918D6DDE41E050E0BE0142
:101360006D5F7F4FF601808D918D64DE41E050E02E
:10137000BE016C5F7F4FF601808D918D5BDEF601C3
:10138000808D918DC3DB0F900F900F900F90DF91A8
:10139000CF911F910F91EF90DF90CF90BF90AF90C2
:1013A0009F908F900895EF920F93FA010190002083
:1013B000E9F73197E41BF50BE02E022F9F018EDF3A
:1013C0000F91EF900895FC0175836483685F7F4FF0
:1013D00073836283118210820895CF93DF93FC019F
:1013E00080819181A481B58112962D913C911397B2
:1013F00082179307E0F4A281B3812D913D91B383CD
:10140000A283019691838083EB01B983A8838EEF39
:101410009FEF821B930B83709927820F931F42814A
:101420005381480F591F53834283C90102C08FEF74
:101430009FEFDF91CF9108950F931F93CF93DF9389
:10144000FC01A081B181C481D5818A819B81A817CB
:10145000B90750F5C281D381299139918EEF9FEF61
:10146000821B930B83709927D383C2831196B18318
:10147000A0838E01EB01DA012417350708F4D901A6
:101480006A0F7B1FC617D70729F0D8014D918D0130
:101490004993F8CF820F931F42815381480F591F00
:1014A00053834283C90102C08FEF9FEFDF91CF9139
:1014B0001F910F9108950F931F93CF93DF93EC012A
:1014C0008B016115710501F1BC01645F7F4F42E042
:1014D00050E0C801B1DFEC81FD8161E671E08081FF
:1014E00091810E94CB176C857D85EC81FD814AE05E
:1014F00050E0808191810E949118BE01605F7F4F12
:10150000C8016BDF9F878E87DF91CF911F910F916D
:1015100008950F931F93CF93DF93EC018B010696F1
:1015200001D11D830C834FEF5FEFBA0148835983CC
:101530006A837B83DF91CF911F910F910895CF92A2
:10154000DF92EF92FF920F931F93CF93DF9300D020
:101550001F92CDB7DEB77C016B015B834A83298381
:10156000FC01978386834BE55AE060E070E040879A
:101570005187628773879C012A5F3F4F442737FD5D
:101580004095542F03E010E064E170E08481958180
:10159000DADCF60101900020E9F7AF014150510972
:1015A0004C195D09B601F7018481958143DD42E064
:1015B00050E0BE016E5F7F4FF701848195813ADD77
:1015C00041E050E0BE016F5F7F4FF701848195815C
:1015D00031DDF7018481958199DA40ED57E060E0D3
:1015E00070E0F7018481958180DC009779F0FC013F
:1015F000448155816681778177FD08C0F70140837A
:1016000051836283738380E090E003C0FC01848196
:1016100095810F900F900F90DF91CF911F910F91B7
:10162000FF90EF90DF90CF9008958F929F92AF92AE
:10163000BF92CF92DF92EF92FF920F931F93CF93BF
:10164000DF93EC015B014A01790168011D861C866C
:10165000288139814A815B8157FD44C08C819D81FD
:10166000E114F10431F0101611061CF403E010E04F
:1016700002C002E010E065E170E065DCF401019079
:101680000020E9F7AF014150510948195909B40147
:101690008C819D81CFDCF50101900020E9F7AF013D
:1016A000415051094A195B09B5018C819D81C2DC09
:1016B000E114F10441F01C141D042CF4A601B7013F
:1016C0008C819D81B7DC8C819D81DF91CF911F91B1
:1016D0000F91FF90EF90DF90CF90BF90AF909F90D1
:1016E0008F9014CADF91CF911F910F91FF90EF90CF
:1016F000DF90CF90BF90AF909F908F9008950F9301
:101700001F93F90101900020E9F78F0101501109A1
:10171000021B130B8ADF1F910F9108959A014CE66B
:1017200051E0EDCFFC0111821082138212820895E4
:10173000FC01738362830895DC011296ED91FC91A4
:1017400013973097F9F02D913C91119721153105A0
:10175000B9F014968D919C911597AC0155954795CC
:1017600080FF0AC0D901A40FB51F0D90BC91A02D18
:10177000AE0FBF1FED91FC91C901840F951F099415
:10178000CB0109940895FC0180819181892B39F462
:1017900081E022813381232B19F480E0089581E0D8
:1017A000089567EC71E08CEF94E00E94D61781E019
:1017B00080933B04089565EB71E08CEF94E00E9408
:1017C000D61710923B04089566EA71E08CEF94E01E
:1017D0000C94D6171F920F920FB60F9211248F926E
:1017E0009F92AF92BF92CF92DF92EF92FF922F9390
:1017F0003F934F935F936F937F938F939F93AF9399
:10180000BF93EF93FF93E0910701EF5FE43008F09F
:10181000E0E0F0E0E85FFE4F808180937C00809103
:101820000701882309F4B9C180910701815009F0AB
:1018300090C080908E0390908F03A0909003B09002
:1018400091038092920390929303A0929403B0929A
:101850009503C0909603D0909703E0909803F09082
:101860009903C0929A03D0929B03E0929C03F0925A
:101870009D03609178007091790080E090E00E9473
:10188000751C9B01AC0160938E0370938F03809352
:10189000900390939103C701B6010E94741BA501A8
:1018A00094010E94731B2BED39EF4EE75FE30E941A
:1018B0002B1D4B015C0160939603709397038093FB
:1018C0009803909399039B01AC010E942B1D9B01EF
:1018D000AC016091A6037091A7038091A803909139
:1018E000A9030E94741B6093A6037093A7038093BF
:1018F000A8039093A903A7019601C501B4010E9412
:10190000731B2AE939E949ED5FE30E942B1D9B0116
:10191000AC01C701B6010E94741B60939E037093D3
:101920009F038093A0039093A1032091060121506F
:1019300008F420E220930601E091060124E0E29FF2
:10194000F0011124EE55FD4F6083718382839383F0
:10195000BBC1813009F083C0C090E203D090E303A3
:10196000E090E403F090E503C092E603D092E70331
:10197000E092E803F092E9038090EA039090EB0391
:10198000A090EC03B090ED038092EE039092EF03F1
:10199000A092F003B092F103609178007091790009
:1019A00080E090E00E94751C9B01AC016093E20313
:1019B0007093E3038093E4039093E503C501B401BE
:1019C0000E94741BA70196010E94731B2BED39EF37
:1019D0004EE75FE30E942B1D6B017C016093EA03DD
:1019E0007093EB038093EC039093ED039B01AC01A8
:1019F0000E942B1D9B01AC016091F6037091F703CF
:101A00008091F8039091F9030E94741B6093F60390
:101A10007093F7038093F8039093F90320919E034A
:101A200030919F034091A0035091A103C701B601DB
:101A30000E942B1D9B01AC016091FA037091FB0386
:101A40008091FC039091FD030E94741B6093FA0344
:101A50007093FB038093FC039093FD0335C18230A8
:101A600009F098C0C090FE03D090FF03E0900004FE
:101A7000F0900104C0920204D0920304E0920404A6
:101A8000F09205048090060490900704A09008044A
:101A9000B090090480920A0490920B04A0920C0466
:101AA000B0920D04609178007091790080E090E030
:101AB0000E94751C9B01AC016093FE037093FF03B1
:101AC0008093000490930104C501B4010E94741B2B
:101AD000A70196010E94731B2BED39EF4EE75FE3E0
:101AE0000E942B1D6B017C01609306047093070418
:101AF00080930804909309049B01AC010E942B1D64
:101B00009B01AC0160911204709113048091140444
:101B1000909115040E94741B609312047093130437
:101B200080931404909315048091060190E04096F0
:101B300061E270E00E94ED1A80939D02FC01EE0FBD
:101B4000FF1FEE0FFF1FEE55FD4F608171818281F7
:101B5000938160939E0270939F028093A002909362
:101B6000A102A70196010E942B1D9B01AC0160916F
:101B700016047091170480911804909119040E9422
:101B8000741B609316047093170480931804909349
:101B900019049AC0833009F097C0C0901A04D090FD
:101BA0001B04E0901C04F0901D04C0921E04D0920F
:101BB0001F04E0922004F09221048090220490906F
:101BC0002304A0902404B0902504809226049092CF
:101BD0002704A0922804B0922904609178007091A3
:101BE000790080E090E00E94751C9B01AC0160933D
:101BF0001A0470931B0480931C0490931D04C50168
:101C0000B4010E94741BA70196010E94731B2BED67
:101C100039EF4EE75FE30E942B1D6B017C0160935F
:101C200022047093230480932404909325049B0141
:101C3000AC010E942B1D9B01AC0160912E047091A0
:101C40002F0480913004909131040E94741B6093A2
:101C50002E0470932F04809330049093310480916C
:101C6000060190E0809661E270E00E94ED1A809398
:101C70009D02FC01EE0FFF1FEE0FFF1FEE55FD4F03
:101C8000608171818281938160939E0270939F0233
:101C90008093A0029093A102A70196010E942B1DA0
:101CA0009B01AC0160913204709133048091340443
:101CB000909135040E94741B609332047093330436
:101CC000809334049093350480910701811109C0F9
:101CD0008091390490913A04019690933A0480934C
:101CE00039048091390490913A048D3A9A4308F46A
:101CF000B7C08091390490913A049093380480934E
:101D000037048091A6039091A703A091A803B091F6
:101D1000A9038093720390937303A0937403B09309
:101D200075031092A6031092A7031092A8031092B5
:101D3000A9038091F6039091F703A091F803B09165
:101D4000F9038093760390937703A0937803B0937D
:101D500079031092F6031092F7031092F803109291
:101D6000F9038091FA039091FB03A091FC03B091D9
:101D7000FD0380937A0390937B03A0937C03B0933D
:101D80007D031092FA031092FB031092FC03109251
:101D9000FD038091120490911304A0911404B0915A
:101DA000150480937E0390937F03A0938003B093E8
:101DB00081031092120410921304109214041092D2
:101DC00015048091160490911704A0911804B09105
:101DD00019048093820390938303A0938403B093A8
:101DE0008503109216041092170410921804109292
:101DF000190480912E0490912F04A0913004B09189
:101E000031048093860390938703A0938803B09353
:101E1000890310922E0410922F0410923004109215
:101E200031048091320490913304A0913404B09134
:101E3000350480938A0390938B03A0938C03B09313
:101E40008D031092320410923304109234041092D5
:101E5000350410923A041092390481E080933604DC
:101E6000809107018F5F80930701843010F01092FA
:101E70000701FF91EF91BF91AF919F918F917F915A
:101E80006F915F914F913F912F91FF90EF90DF9075
:101E9000CF90BF90AF909F908F900F900FBE0F90FC
:101EA0001F901895CF93DF9326E040E051EE60E05D
:101EB00070E08CEF94E01AD78CEF94E00E94D31777
:101EC0006DE971E08CEF94E00E94A8174AE050E0C1
:101ED00064E070E08CEF94E00E948A186EE871E094
:101EE0008CEF94E00E94D61704B600FE03C064E8AD
:101EF00071E005C004B601FE07C06AE771E08CEF2F
:101F000094E00E94D6170CC004B602FE03C060E73E
:101F100071E0F5CF60E871E08CEF94E00E94E61785
:101F200061E086E00E947F1A61E086E00E94B81AB4
:101F30006AE571E08CEF94E00E94D61767E471E0E7
:101F40008CEF94E00E94A8174AE050E062E070E055
:101F50008CEF94E00E9491186FE371E08CEF94E0B5
:101F6000F7D724E030E04AE959E969ED7FE38CEFE7
:101F700094E00E94B91967E371E08CEF94E0E8D730
:101F800024E030E04AE959E969ED7FE38CEF94E021
:101F90000E94B9196FE271E08CEF94E0D9D724E088
:101FA00030E04AE959E969ED7FE38CEF94E00E9463
:101FB000B91967E271E08CEF94E0CAD724E030E011
:101FC0004BE15FE26DED7DE38CEF94E00E94B91987
:101FD0006FE171E08CEF94E0BBD724E030E04BE19F
:101FE0005FE26DED7DE38CEF94E00E94B91967E14B
:101FF00071E08CEF94E0ACD724E030E04BE15FE29D
:102000006DED7DE38CEF94E00E94B9196FE071E013
:102010008CEF94E09DD724E030E045E15CE86AEE87
:102020007EE38CEF94E00E94B91967E071E08CEFD9
:1020300094E08ED724E030E045E15CE86AEE7EE390
:102040008CEF94E00E94B9196FEF70E08CEF94E090
:102050007FD724E030E045E15CE86AEE7EE38CEF78
:1020600094E00E94B91966EF70E08CEF94E070D7AD
:1020700023E030E040E050E06EEF72E48CEF94E05B
:102080000E94B91940ED57E060E070E088E694E006
:1020900030D8811106C06FED70E08CEF94E086D7E8
:1020A000F1CF6DEC70E08CEF94E080D765EB70E0E1
:1020B0008CEF94E07BD720E040E550E06AE871E0E7
:1020C00086E594E03CDAEC01009769F061EA70E0A3
:1020D0008CEF94E03DD74AE050E0BE018CEF94E0F5
:1020E0000E949118FFCF63E970E08CEF94E05ED717
:1020F0006EE770E08CEF94E059D761ED7BE08CE304
:1021000094E016DB6BED7BE082E494E011DB64EE9F
:102110007BE088E494E00CDB8CE394E059D860E742
:1021200070E08CEF94E042D760E086E00E94B81A3D
:1021300029E288E190E00FB6F894A89580936000BA
:102140000FBE2093600080910801877080937C000F
:1021500080917A00806880937A0080917A00806212
:1021600080937A0080917A00886080937A007894D6
:102170008FEE80937A00DF91CF9108954F925F9216
:102180006F927F928F929F92AF92BF92CF92DF9287
:10219000EF92FF920F931F93CF93DF93CDB7DEB7EC
:1021A000C451D1400FB6F894DEBF0FBECDBFA89585
:1021B00088E694E00E941D0780919C02811104C072
:1021C0008091360481118AC480913604882309F4F1
:1021D0008BC410923604609137047091380480E00B
:1021E00090E00E94751C9B01AC016091720370919C
:1021F000730380917403909175030E94DC1B0E940D
:10220000921D25E13CE84AEE5EE30E942B1D4B0146
:102210005C01609137047091380480E090E00E9486
:10222000751C9B01AC0160917603709177038091DE
:102230007803909179030E94DC1B0E94921D2BE190
:102240003FE24DED5DE30E942B1D2B013C016091AF
:1022500037047091380480E090E00E94751C9B0167
:10226000AC0160917A0370917B0380917C03909123
:102270007D030E94DC1B27E136EA4AE45DE30E940D
:102280002B1D6B017C01609137047091380480E054
:1022900090E00E94751C9B01AC0160917E037091DF
:1022A0007F0380918003909181030E94DC1B0E9438
:1022B000921D2BE13FE24DED5DE30E942B1DCF5FB0
:1022C000DE4F688379838A839B83C150D1406091BC
:1022D00037047091380480E090E00E94751C9B01E7
:1022E000AC0160918203709183038091840390918B
:1022F00085030E94DC1B27E136EA4AE45DE30E9485
:102300002B1DCB5FDE4F688379838A839B83C55007
:10231000D140609137047091380480E090E00E94D1
:10232000751C9B01AC0160918603709187038091BD
:102330008803909189030E94DC1B0E94921D2BE16F
:102340003FE24DED5DE30E942B1DC75FDE4F6883CA
:1023500079838A839B83C950D140609137047091FF
:10236000380480E090E00E94751C9B01AC016091F4
:102370008A0370918B0380918C0390918D030E944E
:10238000DC1B27E136EA4AE45DE30E942B1DC35FB4
:10239000DE4F688379838A839B83CD50D14020E0D0
:1023A00030E040E05FE3C501B4010E942B1D2091A5
:1023B00066033091670340916803509169030E945E
:1023C000741B609366037093670380936803909314
:1023D000690360936A0370936B0380936C0390931B
:1023E0006D0360936E0370936F03809370039093FB
:1023F000710320E030E040E05FE3C301B2010E94DE
:102400002B1D9B01AC0160915A0370915B0380917D
:102410005C0390915D030E94741B60935A03709358
:102420005B0380935C0390935D0320E030E040E029
:102430005FE3C701B6010E942B1D20914E0330912E
:102440004F0340915003509151030E94741BCF5E83
:10245000DE4F688379838A839B83C151D140609327
:102460004E0370934F038093500390935103A30145
:102470009201C501B4010E942B1D9B01AC01C70153
:10248000B6010E94DC1B20E030E040E05FE30E94E8
:102490002B1D9B01AC016091360370913703809135
:1024A0003803909139030E94741B60933603709334
:1024B0003703809338039093390320E030E040E005
:1024C0005FE3CF5FDE4F688179818A819B81C15054
:1024D000D1400E942B1D9B01AC0160915E03709165
:1024E0005F0380916003909161030E94741B60936D
:1024F0005E0370935F03809360039093610320E019
:1025000030E040E05FE3CB5FDE4F688179818A8114
:102510009B81C550D1400E942B1D209152033091C8
:10252000530340915403509155030E94741B2B0197
:102530003C01609352037093530380935403909330
:102540005503CF5FDE4F288139814A815B81C150BD
:10255000D140C501B4010E942B1D9B01AC01CB5F92
:10256000DE4F688179818A819B81C550D1400E946C
:10257000DC1B20E030E040E05FE30E942B1D9B016C
:10258000AC0160913A0370913B0380913C039091C0
:102590003D030E94741B60933A0370933B03809346
:1025A0003C0390933D0320E030E040E05FE3C75FF1
:1025B000DE4F688179818A819B81C950D1400E9418
:1025C0002B1D9B01AC0160916203709163038091AC
:1025D0006403909165030E94741B6093620370937F
:1025E0006303809364039093650320E030E040E050
:1025F0005FE3C35FDE4F688179818A819B81CD5023
:10260000D1400E942B1D20915603309157034091D9
:102610005803509159030E94741B6B017C01609315
:102620005603709357038093580390935903C75FE1
:10263000DE4F288139814A815B81C950D140C50173
:10264000B4010E942B1D9B01AC01C35FDE4F68816A
:1026500079818A819B81CD50D1400E94DC1B20E092
:1026600030E040E05FE30E942B1D9B01AC016091D4
:102670003E0370913F0380914003909141030E947B
:10268000741B60933E0370933F03809340039093C9
:10269000410310919C021F5F10939C02A3019201C1
:1026A000CF5EDE4F688179818A819B81C151D140A3
:1026B0000E94741BA70196010E94741B6093320351
:1026C00070933303809334039093350321E63BE00A
:1026D00046E35BE30E942B1D20E030E04AE754E430
:1026E0000E94DC1B9B01AC0160912E0370912F03B3
:1026F0008091300390913103F7D760932E0370934C
:102700002F038093300390933103133008F4ECC10E
:1027100081E080939C0280919A0290919B020196A5
:1027200090939B0280939A0261E086E021D780918A
:1027300041038F93809140038F9380913F038F9348
:1027400080913E038F9380913D038F9380913C0352
:102750008F9380913B038F9380913A038F93809165
:1027600039038F93809138038F93809137038F9330
:10277000809136038F93809159038F9380915803F2
:102780008F93809157038F93809156038F938091FD
:1027900055038F93809154038F93809153038F93AC
:1027A000809152038F93809151038F9380915003B6
:1027B0008F9380914F038F9380914E038F938091DD
:1027C00065038F93809164038F93809163038F934C
:1027D000809162038F93809161038F938091600356
:1027E0008F9380915F038F9380915E038F9380918D
:1027F0005D038F9380915C038F9380915B038F9334
:1028000080915A038F93809169038F93809168031D
:102810008F93809167038F93809166038F9380914C
:1028200031038F93809130038F9380912F038F9387
:1028300080912E038F93809135038F938091340381
:102840008F93809133038F93809132038F93809184
:102850009B028F9380919A028F9386E991E09F93D8
:102860008F9387ED91E09F938F93CE0101967C012A
:10287000FF928F930E94091F0FB6F894DEBF0FBE20
:10288000CDBFB7018CEF94E0A1D340E050E0B70199
:1028900086E594E00E948E0B62E572E08CEF94E096
:1028A00095D380913B04882309F4ACC08091410307
:1028B0008F93809140038F9380913F038F938091FA
:1028C0003E038F9380913D038F9380913C038F93C0
:1028D00080913B038F9380913A038F9380913903CA
:1028E0008F93809138038F93809137038F938091DA
:1028F00036038F93809159038F93809158038F9360
:10290000809157038F93809156038F938091550345
:102910008F93809154038F93809153038F93809171
:1029200052038F93809151038F93809150038F9323
:1029300080914F038F9380914E038F938091650315
:102940008F93809164038F93809163038F93809121
:1029500062038F93809161038F93809160038F93C3
:1029600080915F038F9380915E038F9380915D03CD
:102970008F9380915C038F9380915B038F93809101
:102980005A038F93809169038F93809168038F938B
:10299000809167038F93809166038F9380913103B9
:1029A0008F93809130038F9380912F038F93809129
:1029B0002E038F93809135038F93809134038F93EF
:1029C000809133038F93809132038F9380919B0288
:1029D0008F9380919A028F9389ED91E09F938F93CB
:1029E000FF92EF920E94091F0FB6F894DEBF0FBE50
:1029F000CDBF00E020E0A70164E672E08CE394E044
:102A00000E94D30960E086E0B3D51092660310926D
:102A10006703109268031092690310925A03109290
:102A20005B0310925C0310925D0310924E031092B0
:102A30004F031092500310925103109242031092D0
:102A400043031092440310924503109236031092F0
:102A50003703109238031092390310925E031092DC
:102A60005F03109260031092610310925203109260
:102A70005303109254031092550310924603109280
:102A80004703109248031092490310923A031092A0
:102A90003B0310923C0310923D031092620310928C
:102AA0006303109264031092650310925603109210
:102AB0005703109258031092590310924A03109230
:102AC0004B0310924C0310924D0310923E03109250
:102AD0003F03109240031092410306C081E08093AF
:102AE0009C021092360470CBCC5EDE4F0FB6F89489
:102AF000DEBF0FBECDBFDF91CF911F910F91FF9031
:102B0000EF90DF90CF90BF90AF909F908F907F908D
:102B10006F905F904F9008958ED4C4D92FDBFECF75
:102B20004CEF54E0BA0188E694E00E949B0568E609
:102B300074E086E594E00E94890A68E674E08CE31C
:102B400094E00C94D108FC01818D228D90E0805C92
:102B50009F4F821B91098F7399270895FC01918DD6
:102B6000828D981731F0828DE80FF11D858D90E0F0
:102B700008958FEF9FEF0895FC01918D828D981736
:102B800061F0828DDF01A80FB11D5D968C91928D51
:102B90009F5F9F73928F90E008958FEF9FEF08954E
:102BA000FC01848DDF01A80FB11DA35ABF4F2C91EA
:102BB000848D90E001968F739927848FA689B789B9
:102BC0002C93A089B1898C9180648C93938D848D92
:102BD000981306C00288F389E02D80818F7D808361
:102BE0000895CF93DF93EC01888D8823C1F0EA89A3
:102BF000FB89808185FD05C0A889B9898C9186FDF6
:102C00000EC00FB607FCF5CF808185FFF2CFA889F3
:102C1000B9898C9185FFEDCFCE01C2DFE8CFDF917E
:102C2000CF910895CF92DF92FF920F931F93CF938E
:102C3000DF931F92CDB7DEB76C0181E0D6015896C5
:102C40008C9358975B969C915B975C968C915C9764
:102C5000981307C05096ED91FC915197808185FDA6
:102C60002DC0F601038D10E00F5F1F4F0F7311276A
:102C7000F02EF601848DF81210C00FB607FCF9CFC4
:102C8000D6015096ED91FC915197808185FFF1CF4F
:102C9000C601698385DF6981ECCF838DE80FF11D63
:102CA000E35AFF4F6083D6015B960C935B97529675
:102CB000ED91FC915397808180620CC0D6015696AD
:102CC000ED91FC91579760835096ED91FC9151974F
:102CD00080818064808381E090E00F90DF91CF91CC
:102CE0001F910F91FF90DF90CF900895BF92CF92E8
:102CF000DF92EF92FF92CF93DF93EC016A017B01A9
:102D0000B22E60E47BE48CE490E0A701960178D4D5
:102D10002150310941095109569547953795279515
:102D2000E889F98982E08083211580E1380790F0F5
:102D3000E889F989108260EA75E286E290E0A701ED
:102D400096015ED4215031094109510956954795A4
:102D500037952795EC85FD853083EE85FF852083AB
:102D6000188EEC89FD89B082EA89FB8980818061B7
:102D70008083EA89FB89808188608083EA89FB8976
:102D8000808180688083EA89FB8980818F7D808350
:102D9000DF91CF91FF90EF90DF90CF90BF9008959B
:102DA0001F920F920FB60F9211242F938F939F9320
:102DB000EF93FF93E0910C05F0910D058081E09178
:102DC0001205F091130582FD12C0908180911505C6
:102DD0008F5F8F7320911605821751F0E0911505D2
:102DE000F0E0E450FB4F958F8093150501C0808182
:102DF000FF91EF919F918F912F910F900FBE0F90A8
:102E00001F9018951F920F920FB60F9211242F93B7
:102E10003F934F935F936F937F938F939F93AF9362
:102E2000BF93EF93FF938CEF94E0BADEFF91EF91A5
:102E3000BF91AF919F918F917F916F915F914F91D2
:102E40003F912F910F900FBE0F901F9018951092E9
:102E5000FF041092FE0488EE93E0A0E0B0E08093BF
:102E6000000590930105A0930205B09303058DE73B
:102E700092E09093FD048093FC0485EC90E09093A5
:102E800009058093080584EC90E090930B058093EE
:102E90000A0580EC90E090930D0580930C0581EC81
:102EA00090E090930F0580930E0582EC90E0909354
:102EB00011058093100586EC90E0909313058093A4
:102EC0001205109215051092160510921705109212
:102ED00018050895CF92DF92EF92FF920F931F9300
:102EE000CF93DF937C016A01EB0100E010E00C1549
:102EF0001D0571F06991D701ED91FC910190F08170
:102F0000E02DC7010995892B19F00F5F1F4FEFCFF7
:102F1000C801DF91CF911F910F91FF90EF90DF904B
:102F2000CF9008956115710581F0DB010D900020AF
:102F3000E9F7AD0141505109461B570BDC01ED91FA
:102F4000FC910280F381E02D099480E090E00895E7
:102F5000EF92FF920F931F93CF93DF938C017B012E
:102F6000C0E0D0E0F701EC0FFD1F6491662359F03B
:102F7000F801A081B181ED91FC91C8010995892BDF
:102F800011F02196EFCFCE01DF91CF911F910F91DC
:102F9000FF90EF900895C6CFDC01ED91FC91019078
:102FA000F081E02D099469E872E0BCCF0F931F9384
:102FB000CF93DF93EC01CCDF8C01CE01F4DF800FE7
:102FC000911FDF91CF911F910F9108950F931F9340
:102FD000CF93DF93EC01A6DF8C01CE01E4DF800FFD
:102FE000911FDF91CF911F910F9108958F929F9222
:102FF000AF92BF92DF92EF92FF920F931F93CF9306
:10300000DF93CDB7DEB7A1970FB6F894DEBF0FBE42
:10301000CDBF7C01F42FD52ECB0119A2223008F4AC
:103020002AE08E010F5D1F4F822E912CA12CB12C16
:103030006F2F7D2DA5019401E3D2F22FD32ECA016B
:10304000015011096A3010F4E0E301C0E7E3E60F34
:10305000D801EC93232B242B252B51F7B801C70162
:1030600061DFA1960FB6F894DEBF0FBECDBFDF9132
:10307000CF911F910F91FF90EF90DF90BF90AF9095
:103080009F908F900895CF92DF92EF92FF920F93CF
:103090001F93CF93DF93EC016A017B01211531056A
:1030A00079F4E881F9810190F081E02D642FDF91BE
:1030B000CF911F910F91FF90EF90DF90CF900994E7
:1030C0002A303105D9F477FF18C06DE265DF8C0135
:1030D00044275527BA014C195D096E097F092AE07A
:1030E000CE0184DF800F911FDF91CF911F910F914F
:1030F000FF90EF90DF90CF9008952AE0B701A601EE
:10310000CE01DF91CF911F910F91FF90EF90DF9053
:10311000CF906CCF9A01AB01662757FD6095762F53
:10312000B2CF0F931F93CF93DF93EC019A01AB01C2
:10313000662757FD6095762FA6DF8C01CE0133DF21
:10314000800F911FDF91CF911F910F91089521154D
:10315000310541F4DC01ED91FC910190F081E02D0D
:10316000642F099443CF9A01462F50E060E070E04D
:10317000EECF9A01AB0160E070E0E9CF0F931F93AF
:10318000CF93DF93EC019A01AB0160E070E0DFDFE9
:103190008C01CE0108DF800F911FDF91CF911F912D
:1031A0000F9108950F931F93CF93DF93EC01CFDF1F
:1031B0008C01CE01F8DE800F911FDF91CF911F911E
:1031C0000F9108954F925F926F927F928F929F928C
:1031D000AF92BF92CF92DF92EF92FF920F931F9325
:1031E000CF93DF93EC016A017B01B22E9A01AB0110
:1031F000C701B601D5D4882319F06CE872E024C069
:1032000026013701E89477F82FEF3FEF4FE75FE7AC
:10321000C301B201C5D481110CC02FEF3FEF4FE7BE
:103220005FE7C301B201C4D218161CF460E972E072
:103230000BC02FEF3FEF4FE75FE4C701B60107D4A4
:103240001816A4F464E972E0CE01DF91CF911F91CA
:103250000F91FF90EF90DF90CF90BF90AF909F9035
:103260008F907F906F905F904F905CCE2FEF3FEFED
:103270004FE75FECC701B6019BD287FDE3CF20E0AB
:1032800030E0A901C701B60193D287FF09C06DE202
:10329000CE0182DE8C01F7FAF094F7F8F09402C0C8
:1032A00000E010E0A12C60E070E080E09FE3AB1450
:1032B00039F020E030E040E251E47ED2A394F7CF31
:1032C0009B01AC01C701B6010FD26B017C01E1D2B9
:1032D0002B013C010AD39B01AC01C701B60103D20B
:1032E0006B017C012AE0B301A201CE017FDE080F51
:1032F000191FBB2031F068E972E0CE0113DE080F20
:10330000191F7B2C772019F120E030E040E251E4D6
:10331000C701B601A0D36B017C01B6D24B01AA2430
:1033200097FCA094BA2C2AE030E0B501A401CE01AC
:10333000AADE080F191FC501B401D9D29B01AC0147
:10334000C701B601D0D16B017C017A94DBCFC801F3
:10335000DF91CF911F910F91FF90EF90DF90CF9071
:10336000BF90AF909F908F907F906F905F904F90A5
:1033700008950F931F93CF93DF93EC0123DF8C010C
:10338000CE0111DE800F911FDF91CF911F910F9120
:1033900008951F920F920FB60F9211242F933F930F
:1033A0008F939F93AF93BF9380919A0590919B05C4
:1033B000A0919C05B0919D053091990526E6230FBB
:1033C0002D3728F029EE230F0196A11DB11D209362
:1033D000990580939A0590939B05A0939C05B093C3
:1033E0009D0580919E0590919F05A091A005B091AB
:1033F000A1050196A11DB11D80939E0590939F0587
:10340000A093A005B093A105BF91AF919F918F911B
:103410003F912F910F900FBE0F901F9018952FB7CF
:10342000F89460919A0570919B0580919C0590910C
:103430009D052FBF0895789484B5826084BD84B5BE
:10344000816084BD85B5826085BD85B5816085BD9F
:10345000EEE6F0E0808181608083E1E8F0E01082B8
:10346000808182608083808181608083E0E8F0E0F9
:10347000808181608083E1EBF0E0808184608083E3
:10348000E0EBF0E0808181608083EAE7F0E080811A
:10349000846080838081826080838081816080837A
:1034A0008081806880831092C1000895833081F00C
:1034B00028F4813099F08230A1F008958730A9F086
:1034C0008830B9F08430D1F4809180008F7D03C0C2
:1034D000809180008F7780938000089584B58F77E6
:1034E00002C084B58F7D84BD08958091B0008F7730
:1034F00003C08091B0008F7D8093B0000895CF937A
:10350000DF9390E0FC01E551FE4F2491FC01E15076
:10351000FE4F8491882349F190E0880F991FFC01A8
:10352000E35EFD4FA591B4918D5E9D4FFC01C59169
:10353000D4919FB7611108C0F8948C912095822393
:103540008C93888182230AC0623051F4F8948C9164
:10355000322F309583238C938881822B888304C0FB
:10356000F8948C91822B8C939FBFDF91CF9108951B
:103570000F931F93CF93DF931F92CDB7DEB7282F02
:1035800030E0F901E952FE4F8491F901E551FE4F17
:103590001491F901E150FE4F04910023C1F08823FA
:1035A00019F0698383DF6981E02FF0E0EE0FFF1FE0
:1035B000ED5EFD4FA591B4919FB7F8948C91611188
:1035C00003C01095812301C0812B8C939FBF0F9066
:1035D000DF91CF911F910F91089597FB072E16F45D
:1035E000009406D077FD08D064D007FC05D03EF4E7
:1035F000909581959F4F0895709561957F4F08959F
:10360000A1E21A2EAA1BBB1BFD010DC0AA1FBB1FE6
:10361000EE1FFF1FA217B307E407F50720F0A21B58
:10362000B30BE40BF50B661F771F881F991F1A94C5
:1036300069F760957095809590959B01AC01BD01EF
:10364000CF0108952F923F924F925F926F927F9297
:103650008F929F92AF92BF92CF92DF92EF92FF92A2
:103660000F931F93CF93DF93CDB7DEB7CA1BDB0B4E
:103670000FB6F894DEBF0FBECDBF09942A883988F3
:1036800048885F846E847D848C849B84AA84B984FA
:10369000C884DF80EE80FD800C811B81AA81B98106
:1036A000CE0FD11D0FB6F894DEBF0FBECDBFED011A
:1036B0000895AA1BBB1B51E107C0AA1FBB1FA61779
:1036C000B70710F0A61BB70B881F991F5A95A9F7CB
:1036D00080959095BC01CD010895EE0FFF1F0590D8
:1036E000F491E02D09945058BB27AA270ED075C13C
:1036F00066D130F06BD120F031F49F3F11F41EF40D
:103700005BC10EF4E095E7FB51C1E92F77D180F35F
:10371000BA17620773078407950718F071F49EF5CE
:103720008FC10EF4E0950B2EBA2FA02D0B01B9011D
:1037300090010C01CA01A0011124FF27591B99F027
:10374000593F50F4503E68F11A16F040A22F232F33
:10375000342F4427585FF3CF469537952795A79583
:10376000F0405395C9F77EF41F16BA0B620B730B2A
:10377000840BBAF09150A1F0FF0FBB1F661F771F9B
:10378000881FC2F70EC0BA0F621F731F841F48F450
:10379000879577956795B795F7959E3F08F0B3CFD6
:1037A0009395880F08F09927EE0F979587950895C0
:1037B000D9D008F481E008950CD00FC107D140F0B2
:1037C000FED030F021F45F3F19F0F0C0511139C143
:1037D000F3C014D198F39923C9F35523B1F3951B82
:1037E000550BBB27AA2762177307840738F09F5F22
:1037F0005F4F220F331F441FAA1FA9F333D00E2E91
:103800003AF0E0E830D091505040E695001CCAF7FD
:1038100029D0FE2F27D0660F771F881FBB1F2617C2
:1038200037074807AB07B0E809F0BB0B802DBF0195
:10383000FF2793585F4F2AF09E3F510568F0B6C0AE
:1038400000C15F3FECF3983EDCF386957795679572
:10385000B795F7959F5FC9F7880F911D9695879546
:1038600097F90895E1E0660F771F881FBB1F621765
:1038700073078407BA0720F0621B730B840BBA0B23
:10388000EE1F88F7E095089504D06894B111D9C06F
:103890000895BCD088F09F5790F0B92F9927B75161
:1038A000A0F0D1F0660F771F881F991F1AF0BA9504
:1038B000C9F712C0B13081F0C3D0B1E00895C0C0E3
:1038C000672F782F8827B85F39F0B93FCCF38695FA
:1038D00077956795B395D9F73EF490958095709557
:1038E00061957F4F8F4F9F4F0895E89409C097FBD4
:1038F0003EF490958095709561957F4F8F4F9F4FC7
:103900009923A9F0F92F96E9BB279395F69587950A
:1039100077956795B795F111F8CFFAF4BB0F11F4CD
:1039200060FF1BC06F5F7F4F8F4F9F4F16C0882374
:1039300011F096E911C0772321F09EE8872F762FAA
:1039400005C0662371F096E8862F70E060E02AF0EB
:103950009A95660F771F881FDAF7880F96958795D7
:1039600097F90895990F0008550FAA0BE0E8FEEFAC
:1039700016161706E807F907C0F012161306E40733
:10398000F50798F0621B730B840B950B39F40A262C
:1039900061F0232B242B252B21F408950A2609F40A
:1039A000A140A6958FEF811D811D089597F99F670E
:1039B00080E870E060E008959FEF80EC08950024B7
:1039C0000A941616170618060906089500240A9484
:1039D00012161306140605060895092E0394000C0A
:1039E00011F4882352F0BB0F40F4BF2B11F460FF99
:1039F00004C06F5F7F4F8F4F9F4F089557FD9058C2
:103A0000440F551F59F05F3F71F04795880F97FBA2
:103A1000991F61F09F3F79F087950895121613065C
:103A20001406551FF2CF4695F1DF08C0161617068B
:103A30001806991FF1CF86957105610508940895C0
:103A4000E894BB2766277727CB0197F908958ADF8B
:103A500008F48FEF08950BD0C0CFB1DF28F0B6DFA8
:103A600018F0952309F0A2CFA7CF1124EACFC6DF23
:103A7000A0F3959FD1F3950F50E0551F629FF00181
:103A8000729FBB27F00DB11D639FAA27F00DB11DDA
:103A9000AA1F649F6627B00DA11D661F829F222763
:103AA000B00DA11D621F739FB00DA11D621F839FEA
:103AB000A00D611D221F749F3327A00D611D231FC0
:103AC000849F600D211D822F762F6A2F11249F570E
:103AD00050408AF0E1F088234AF0EE0FFF1FBB1F31
:103AE000661F771F881F91505040A9F79E3F5105D0
:103AF00070F05CCFA6CF5F3FECF3983EDCF3869589
:103B000077956795B795F795E7959F5FC1F7FE2B7A
:103B1000880F911D9695879597F9089511F40EF4E5
:103B20004BCF42C073DFD0F39923D9F3CEF39F5725
:103B3000550B87FF47D00024A0E640EA900180584B
:103B40005695979528F4805C660F771F881F20F0A4
:103B500026173707480730F4621B730B840B2029A4
:103B600031294A2BA69517940794202531254A27F9
:103B700058F7660F771F881F20F02617370748076A
:103B800030F4620B730B840B200D311D411DA09589
:103B900081F7B901842F9158880F969587950895DC
:103BA000E1DE880B990B08959F3F31F0915020F48E
:103BB000879577956795B795880F911D9695879509
:103BC00097F9089591505040660F771F881FD2F7DC
:103BD0000895283008F027E03327DA01990F311DC6
:103BE00087FD916000966105710539F432602E5FA2
:103BF0003D9330E32A95E1F708959F3F30F08038F8
:103C00007105610509F03C5F3C5F3D93913008F020
:103C10008068911DDF93CF931F930F93FF92EF92D4
:103C2000192F987F9695E92F96959695E90FFF277E
:103C3000EF57FD4F99273327EE24FF24A701E70113
:103C400005900894079428F4360FE71EF81E491FC4
:103C5000511D660F771F881F991F0694A1F70590C5
:103C6000079428F4E70EF81E491F561FC11D770F51
:103C7000881F991F661F0694A1F70590079428F4E2
:103C8000F80E491F561FC71FD11D880F991F661FA9
:103C9000771F0694A1F70590079420F4490F561F4B
:103CA000C71FD81F990F661F771F881F0694A9F793
:103CB00084911095177041F0D695C7955795479503
:103CC000F794E7941A95C1F7E7E2F2E0689415904B
:103CD000159135916591959105907FE27395E11865
:103CE000F10A430B560BC90BD009C0F7E10CF11ECA
:103CF000431F561FC91FD01D7EF4703311F48A95DF
:103D0000E6CFE894015030F0080F0AF400270217BC
:103D100008F4202F2395022F7A3328F079E37D933E
:103D20002A95E9F710C07D932A9589F60694979510
:103D30006795379517951794E118F10A430B560BC1
:103D4000C90BD00998F023957E9173957A3308F0CA
:103D500070E37C932013B8F77E9170617D9330F00F
:103D6000839571E37D9370E32A95E1F71124EF9039
:103D7000FF900F911F91CF91DF91992787FD90952B
:103D80000895FC010590615070400110D8F78095AE
:103D900090958E0F9F1F0895FC0161507040019017
:103DA0000110D8F7809590958E0F9F1F08950F935F
:103DB0001F93CF93DF93182F092FEB018B8181FD88
:103DC00003C08FEF9FEF20C082FF10C04E815F8144
:103DD0002C813D81421753077CF4E881F9819F01D2
:103DE0002F5F3F4F39832883108306C0E885F9850C
:103DF000812F0995892B29F72E813F812F5F3F4F16
:103E00003F832E83812F902FDF91CF911F910F91B0
:103E10000895AEE0B0E0EEE0FFE122CC0D891E890E
:103E200086E08C831A8309838FEF9FE79E838D83BF
:103E3000AE01475E5F4F6F89788DCE0101960E947B
:103E4000BC01EF81F885E00FF11F10822E96E4E0AF
:103E500023CCFA01AA27283051F1203181F1E894CE
:103E60006F936E7F6E5F7F4F8F4F9F4FAF4FB1E06D
:103E70003ED0B4E03CD0670F781F891F9A1FA11D68
:103E8000680F791F8A1F911DA11D6A0F711D811D69
:103E9000911DA11D20D009F468943F912AE0269F2E
:103EA00011243019305D3193DEF6CF010895462F8D
:103EB0004770405D4193B3E00FD0C9F7F6CF462F6E
:103EC0004F70405D4A3318F0495D31FD40524193D7
:103ED00002D0A9F7EACFB4E0A69597958795779594
:103EE0006795BA95C9F700976105710508959B011B
:103EF000AC010A2E06945795479537952795BA95A4
:103F0000C9F7620F731F841F951FA01D0895F894B1
:023F1000FFCFE1
:103F12000000A2058000200102030001454C433A43
:103F220020676F742000204000454C433A20496EC0
:103F320076616C69642043524300524553505F5688
:103F42003A2000524553505F43423A2000434D44C9
:103F52003F3F0053594E4321004241443A2000431F
:103F62006F6E6E65637465644342206973203078B6
:103F7200005245535420636F646520004745540046
:103F8200504F5354005055540044454C455445003D
:103F920057544320726573657400656D6F6E636D6F
:103FA200732E6F7267002F696E7075742F706F7346
:103FB200742E6A736F6E3F6170696B65793D6266DC
:103FC2006333343366386165303330396137613297
:103FD2003339326436613763653461313337266A87
:103FE200736F6E3D25730025737B636F756E7473FB
:103FF2003A25752C706F7765723A252E33662C6BD5
:10400200773A252E33662C7672303A252E33662C7B
:104012006972303A252E33662C6972313A252E3375
:10402200662C6972323A252E33662C7270303A252C
:104032002E33662C7270313A252E33662C72703212
:104042003A252E33662C7066303A252E32662C7055
:1040520066313A252E32662C7066323A252E326649
:104062007D0041524455494E4F3A2073656E64209B
:10407200676574002F6E6F6465732F656D6F6E7464
:10408200782F737461747573000000000012166A51
:1040920017A315BC15AE15F1150D0A006E616E0061
:0A40A200696E66006F7666002E005E
:00000001FF
